:1000000012C02CC02BC02AC029C028C027C026C0BF
:1000100025C024C023C022C021C020C01FC01EC0D4
:100020001DC01CC01BC011241FBECFE5D4E0DEBF25
:10003000CDBF10E0A0E6B0E0E0E8FBE002C0059034
:100040000D92A237B107D9F720E0A2E7B0E001C0D6
:100050001D92A637B207E1F758D090C5D1CF8B9843
:10006000939A0895A0E0B0E0880F991FAA1FBB1FC4
:10007000880F991FAA1FBB1F9C01AD01220F331FC0
:10008000441F551F220F331F441F551F60E072E1AC
:100090008AE790E062D1DA01C9010197A109B109AB
:1000A000892F9A2FAB2FBB2780BD215029B988E912
:1000B0008AB986E880BD08955D9BFECF8CB908950E
:1000C0000F931F93CF93DF93062F662341F0C82F22
:1000D000D92F10E08991F0DF1F5F1013FBCFDF9164
:1000E000CF911F910F91089580E487B986B18668FA
:1000F00086B9089597B18F70907F982B97B9369AEB
:100100003699FECF84B195B10895A9DF80EB94E0D4
:10011000A9DFEADFA0D0FECF9F92AF92BF92CF922D
:10012000DF92EF92FF920F931F93CF93DF93CDB7A0
:10013000DEB729970FB6F894DEBF0FBECDBF098397
:100140001A832B836F837887132F942EA52EC82EA6
:10015000832F8C0D0F2EFAE0BF2EF02DB80E8B2DB5
:1001600090E01DD17C010097E9F189811F928F9366
:1001700026E630E03F932F93FF92EF9240D2412F3B
:1001800050E06A817B81C701049630D2D12CF701FF
:10019000EC0DFD1D00916A0010916B0020916C0028
:1001A00030916D000483158326833783F701918690
:1001B000A28683E283876F817885A601C7010C96AA
:1001C00015D2F701EC0DFD1D8AE393E29587848734
:1001D0006B2DC70175DF0F900F900F900F900F9050
:1001E0000F9001C0B12C8B2D29960FB6F894DEBF6D
:1001F0000FBECDBFDF91CF911F910F91FF90EF9078
:10020000DF90CF90BF90AF909F900895FC01662340
:10021000F9F040E08FEF9FEFAEEF70E058E0208103
:10022000222319F0319630E002C02A2F372F82277F
:100230009327252F9695879580FF04C031E083276B
:1002400030EA93272150B1F74F5F4613E8CF089566
:100250008FEF9FEF0895CF93DF93CDB7DEB7699708
:100260000FB6F894DEBF0FBECDBF88E0FE01319619
:10027000DF01982F1D929A95E9F73896DF011D92BC
:100280008A95E9F7389689E0DF011D928A95E9F7AA
:100290000F2EFCE62F2EF0E03F2EF02DCE01019622
:1002A0005C016E0199E0C90ED11C8399FECF88E0F4
:1002B00090E075D04C01A1E0A98B80E01BDF9F93FB
:1002C0008F933F922F92BF92AF9299D1F6010190F6
:1002D0000020E9F731972F014C185D0881E00ADF13
:1002E0009F938F933F922F92DF92CF9288D1F60106
:1002F00001900020E9F731973F016C187D088201D9
:100300001127A801B501C40171D1A3015527B60178
:10031000C401800F911F6AD168E0C40177DF482FC4
:100320008D8B9E8B1A2DBB8AAA8A4C8A6C2DD88EF7
:10033000CF8A698EE12CF12C09892B89342D592F14
:10034000788D862DE9DEC401C2D00FB6F894DEBFE9
:100350000FBECDBF839BFECFA8CFA1E21A2EAA1B52
:10036000BB1BFD010DC0AA1FBB1FEE1FFF1FA21765
:10037000B307E407F50720F0A21BB30BE40BF50B62
:10038000661F771F881F991F1A9469F760957095EB
:10039000809590959B01AC01BD01CF010895CF934D
:1003A000DF938230910510F482E090E0E0917400D8
:1003B000F091750020E030E0A0E0B0E0309739F136
:1003C0004081518148175907B8F04817590771F40F
:1003D00082819381109729F013969C938E931297A4
:1003E0002CC0909375008093740027C021153105AF
:1003F00031F04217530718F0A901DB0101C0EF01EA
:100400009A01BD01DF010280F381E02DD7CF2115D4
:100410003105F9F0281B390B2430310580F48A812D
:100420009B816115710521F0FB019383828304C0D8
:100430009093750080937400FE01329644C0FE01D3
:10044000E20FF31F8193919322503109398328835E
:100450003AC02091720030917300232B41F4209117
:1004600062003091630030937300209372002091FA
:100470006000309161002115310541F42DB73EB780
:100480004091640050916500241B350BE09172008F
:10049000F0917300E217F307A0F42E1B3F0B28170F
:1004A000390778F0AC014E5F5F4F2417350748F0ED
:1004B0004E0F5F1F5093730040937200819391938E
:1004C00002C0E0E0F0E0CF01DF91CF910895CF933B
:1004D000DF93009709F487C0FC01329713821282E0
:1004E000C0917400D0917500209781F420813181F2
:1004F000280F391F80917200909173008217930723
:1005000079F5F0937300E09372006DC0DE0120E096
:1005100030E0AE17BF0750F412964D915C911397DF
:100520009D014115510509F1DA01F3CFB383A2838F
:1005300040815181840F951F8A179B0771F48D911B
:100540009C911197840F951F029691838083129638
:100550008D919C911397938382832115310529F402
:10056000F0937500E09374003EC0D9011396FC939C
:10057000EE9312974D915D91A40FB51FEA17FB07FB
:1005800079F480819181840F951F0296D90111968B
:100590009C938E938281938113969C938E93129752
:1005A000E0E0F0E08A819B81009719F0FE01EC0108
:1005B000F9CFCE01029628813981820F931F2091B5
:1005C0007200309173002817390769F4309729F4C5
:1005D000109275001092740002C013821282D093A0
:1005E0007300C0937200DF91CF910895FB01DC018D
:1005F00002C001900D9241505040D8F70895AEE0EE
:10060000B0E0E4E0F3E091C20D891E8986E08C83BE
:100610001A8309838FEF9FE79E838D83AE01475E28
:100620005F4F6F89788DCE01019608D0EF81F885F4
:10063000E00FF11F10822E96E4E093C2ACE0B0E030
:10064000E3E2F3E064C27C016B018A01FC011782E2
:100650001682838181FFB0C1CE0101964C01F70162
:100660009381F60193FD859193FF81916F0188231A
:1006700009F49EC1853239F493FD859193FF8191F0
:100680006F01853221F4B70190E0B1D1E8CF512C50
:10069000312C20E02032A0F48B3269F030F480322B
:1006A00059F0833269F420612CC08D3239F08033E7
:1006B00039F4216026C02260246023C0286021C054
:1006C00027FD27C030ED380F3A3078F426FF06C0FA
:1006D000FAE05F9E300D1124532E13C08AE0389E3D
:1006E000300D1124332E20620CC08E3221F426FDF1
:1006F0005FC1206406C08C3611F4206802C08836C1
:1007000041F4F60193FD859193FF81916F01811171
:10071000C1CF982F9F7D9554933028F40C5F1F4FC5
:10072000FFE3F9830DC0833631F0833771F08335F1
:1007300009F057C021C0F801808189830E5F1F4FE7
:1007400044244394512C540114C03801F2E06F0E3C
:10075000711CF801A080B18026FF03C0652D70E0F8
:1007600002C06FEF7FEFC5012C8736D12C018301CA
:100770002C852F77222E16C03801F2E06F0E711CE7
:10078000F801A080B18026FF03C0652D70E002C093
:100790006FEF7FEFC5012C8714D12C012C852068C9
:1007A000222E830123FC19C0832D90E048165906A0
:1007B000A0F4B70180E290E01AD13A94F5CFF501A8
:1007C00027FC859127FE81915F01B70190E00FD151
:1007D00031103A94F1E04F1A51084114510479F75D
:1007E000DEC0843611F0893631F5F80127FF07C0E5
:1007F00060817181828193810C5F1F4F08C060818D
:100800007181882777FD8095982F0E5F1F4F2F7677
:10081000B22E97FF09C090958095709561957F4F96
:100820008F4F9F4F2068B22E2AE030E0A40111D1F3
:10083000A82EA81843C0853729F42F7EB22E2AE0AF
:1008400030E025C0F22FF97FBF2E8F36C1F018F4AB
:10085000883579F0ADC0803719F0883721F0A8C00D
:100860002F2F2061B22EB4FE0DC08B2D8460B82EC8
:1008700009C024FF0AC09F2F9660B92E06C028E049
:1008800030E005C020E130E002C020E132E0F801B4
:10089000B7FE07C060817181828193810C5F1F4F19
:1008A00006C06081718180E090E00E5F1F4FA4015F
:1008B000D0D0A82EA818FB2DFF77BF2EB6FE0BC0F8
:1008C0002B2D2E7FA51450F4B4FE0AC0B2FC08C034
:1008D0002B2D2E7E05C07A2C2B2D03C07A2C01C027
:1008E000752C24FF0DC0FE01EA0DF11D80818033BF
:1008F00011F4297E09C022FF06C07394739404C0CA
:10090000822F867809F0739423FD12C020FF06C061
:100910005A2C731418F4530C5718732C731460F476
:10092000B70180E290E02C8762D073942C85F6CFDB
:10093000731410F4371801C0312C24FF11C0B70113
:1009400080E390E02C8753D02C8522FF16C021FF36
:1009500003C088E590E002C088E790E0B7010CC0D2
:10096000822F867851F021FD02C080E201C08BE227
:1009700027FD8DE2B70190E03AD0A51430F4B7011D
:1009800080E390E034D05A94F8CFAA94F401EA0DB1
:10099000F11D8081B70190E02AD0A110F6CF33205D
:1009A00009F45DCEB70180E290E021D03A94F7CF10
:1009B000F7018681978102C08FEF9FEF2C96E2E1CD
:1009C000C2C0FC010590615070400110D8F78095BD
:1009D00090958E0F9F1F0895FC016150704001900B
:1009E0000110D8F7809590958E0F9F1F08950F9353
:1009F0001F93CF93DF93182F092FEB018B8181FD7C
:100A000003C08FEF9FEF20C082FF10C04E815F8137
:100A10002C813D81421753077CF4E881F9819F01C5
:100A20002F5F3F4F39832883108306C0E885F985FF
:100A3000812F0995892B29F72E813F812F5F3F4F09
:100A40003F832E83812F902FDF91CF911F910F91A4
:100A50000895FA01AA27283051F1203181F1E89454
:100A60006F936E7F6E5F7F4F8F4F9F4FAF4FB1E0A1
:100A70003ED0B4E03CD0670F781F891F9A1FA11D9C
:100A8000680F791F8A1F911DA11D6A0F711D811D9D
:100A9000911DA11D20D009F468943F912AE0269F62
:100AA00011243019305D3193DEF6CF010895462FC1
:100AB0004770405D4193B3E00FD0C9F7F6CF462FA2
:100AC0004F70405D4A3318F0495D31FD405241930B
:100AD00002D0A9F7EACFB4E0A695979587957795C8
:100AE0006795BA95C9F700976105710508959B014F
:100AF000AC010A2E06945795479537952795BA95D8
:100B0000C9F7620F731F841F951FA01D08952F92B0
:100B10003F924F925F926F927F928F929F92AF928D
:100B2000BF92CF92DF92EF92FF920F931F93CF93DA
:100B3000DF93CDB7DEB7CA1BDB0B0FB6F894DEBF71
:100B40000FBECDBF09942A88398848885F846E8497
:100B50007D848C849B84AA84B984C884DF80EE80E1
:100B6000FD800C811B81AA81B981CE0FD11D0FB6EA
:100B7000F894DEBF0FBECDBFED010895F894FFCF0E
:100B80000000760020002A3A2569230025303469C8
:020B9000000063
:00000001FF
