:1000000065C0000080C000007EC000007CC0000011
:100010007AC0000078C0000076C0000074C0000004
:1000200072C0000070C000006EC000006CC0000014
:100030006AC0000068C0000066C0000064C0000024
:1000400062C0000060C00000F7C100005CC000009A
:100050005AC0000058C0000056C0000054C0000044
:1000600052C0000050C000004EC000004CC0000054
:100070004AC0000048C0000046C0000044C0000064
:1000800042C0000040C000003EC000000000000070
:100090000000000010101010101010101818181880
:1000A000181818181C1C1C1C1C1C1C1C1E1E1E1E98
:1000B0001E1E1E1E1F1F1F1F1F1F1F1F000A0404BE
:1000C000110E0000000E0A0E0000000011241FBED9
:1000D000CFEFD0E1DEBFCDBF11E0A0E0B1E0E6EAB6
:1000E000FEE000E00BBF02C007900D92AC30B107FC
:1000F000D9F721E0ACE0B1E001C01D92A533B20711
:10010000E1F71DD1CEC67CCF889A90987894089557
:10011000A0E0B0E0880F991FAA1FBB1F880F991F8E
:10012000AA1FBB1F9C01AD01220F331F441F551F87
:10013000220F331F441F551F60E072E18AE790E0F1
:1001400074D2DA01C9010197A109B109892F9A2F47
:10015000AB2FBB2780939000215029B988E98AB939
:1001600086E08093950008955F9BFECF8CB1089543
:10017000982F907F95BBA89AAA9AEFECF7E0319759
:10018000F1F700C00000AA98A898EFECF7E03197CB
:10019000F1F700C00000F0E18F9FC001112485BB82
:1001A000A89AAA9A8FEC97E00197F1F700C0000097
:1001B000AA98A898EFECF7E03197F1F700C000009B
:1001C0000895982F907F95BBAA9AEFECF7E03197AE
:1001D000F1F700C00000AA98EFECF7E03197F1F7D3
:1001E00000C00000F0E18F9FC001112485BBAA9AD6
:1001F0008FEC97E00197F1F700C00000AA98EFECB0
:10020000F7E03197F1F700C000000895623031F057
:10021000633031F0613029F4805C03C08C5E01C032
:100220008C5A8068CECF0895EF92FF920F931F9360
:10023000CF93DF938C01660F660F660F6064E62E26
:10024000C0E0D0E0F801EC0FFD1FF4908C2F8E0D74
:10025000B8DF8F2D8DDF2196C830D10599F7DF915A
:10026000CF911F910F91FF90EF9008951F93CF931F
:10027000DF938FE295E70197F1F700C0000015BA10
:1002800015BA84B3806F84BB84B3876084BB80E37A
:1002900085BBAA9A8FEC97E00197F1F700C00000A8
:1002A000AA988FEC97E00197F1F700C0000080E377
:1002B00085BBAA9A8FEC97E00197F1F700C0000088
:1002C000AA988FEC97E00197F1F700C0000080E258
:1002D00085BBAA9A8FEC97E00197F1F700C0000068
:1002E000AA988FEC97E00197F1F700C0000088E230
:1002F00068DF8CE066DFCCE8D0E060E011E0160F4C
:10030000CE0192DF2896183011F0612FF7CFDF91E0
:10031000CF911F910895CF93DF93EC01862F642F27
:1003200075DF9E012F5F3F4F8881882329F0E90107
:100330001FDF89918111FCCFDF91CF910895E4DE19
:1003400080EB94E0E5DE92DFFFCF9F92AF92BF9209
:10035000CF92DF92EF92FF920F931F93CF93DF9391
:1003600000D000D0CDB7DEB78C017B0183E290E0F6
:100370009A8389838AE390E09C838B83FB0182814B
:100380000F2EF0ED9F2EF02D980E9282BE016F5F22
:100390007F4FC701049692D25C01F701C284D12C31
:1003A000DC2CCC248185C80ED11CBE016D5F7F4F33
:1003B000C7010C9683D2F8019082B282A18224E018
:1003C0002383D582C482978386832087C8010F90B8
:1003D0000F900F900F90DF91CF911F910F91FF9091
:1003E000EF90DF90CF90BF90AF909F900895FC0169
:1003F0006623F9F040E08FEF9FEFAEEF70E058E03A
:100400002081222319F0319630E002C02A2F372FA5
:1004100082279327252F9695879580FF04C031E08A
:10042000832730EA93272150B1F74F5F4613E8CF77
:1004300008958FEF9FEF08951F920F920FB60F92BE
:1004400011240BB60F929F92AF92BF92CF92DF9280
:10045000EF92FF920F931F932F933F934F935F93CE
:100460006F937F938F939F93AF93BF93EF93FF937C
:10047000CF93DF93CDB7DEB7E197DEBFCDBF74DE9C
:10048000182F84E1FE013196DF01982F1D929A9575
:10049000E9F77496DF011D928A95E9F780911001C2
:1004A0008A32C9F41A33B9F480910E0190910F0188
:1004B000892B89F480910E0190910F019C012F5F8F
:1004C0003F4F30930F0120930E0120911001FC014A
:1004D000EF5EFE4F208320910E0130910F01232B00
:1004E000F9F020910E0130910F01A9014F5F5F4F8C
:1004F00050930F0140930E01F901EF5EFE4F108300
:1005000020910E0130910F012032310549F4809184
:100510000E0190910F01019790930F0180930E01AE
:10052000809110018A3309F05AC0133209F057C084
:1005300080910E0190910F01099708F450C088E056
:1005400090E095D0D82E092F40910E0150910F01C7
:1005500061E171E0CE018996F8DE9AA4ABA4BFA454
:10056000C8A8CF92BF92AF929F9226E031E03F930E
:100570002F930F93DF92D3D168E08D2D902F37DF2B
:100580007C01692D7A2DCE0101969BD140E062E07D
:10059000CE010196C0DE6B2D7C2DCE01459691D10A
:1005A00041E062E0CE014596B6DE10920F01109256
:1005B0000E018D2D902FF3D00FB6F894DEBF0FBE35
:1005C000CDBF89A5813059F42DA53EA52E153F0537
:1005D00031F492B3892782BB8D2D902FE0D01093F8
:1005E0001001E1960FB6F894DEBF0FBECDBFDF91CC
:1005F000CF91FF91EF91BF91AF919F918F917F919B
:100600006F915F914F913F912F911F910F91FF90AB
:10061000EF90DF90CF90BF90AF909F900F900BBE68
:100620000F900FBE0F901F901895A1E21A2EAA1BD3
:10063000BB1BFD010DC0AA1FBB1FEE1FFF1FA21792
:10064000B307E407F50720F0A21BB30BE40BF50B8F
:10065000661F771F881F991F1A9469F76095709518
:10066000809590959B01AC01BD01CF010895CF937A
:10067000DF938230910510F482E090E0E091330145
:10068000F091340120E030E0A0E0B0E0309739F1A3
:100690004081518148175907B8F04817590771F43C
:1006A00082819381109729F013969C938E931297D1
:1006B0002CC0909334018093330127C0211531055C
:1006C00031F04217530718F0A901DB0101C0EF0117
:1006D0009A01BD01DF010280F381E02DD7CF211502
:1006E0003105F9F0281B390B2430310580F48A815B
:1006F0009B816115710521F0FB019383828304C006
:100700009093340180933301FE01329644C0FE0180
:10071000E20FF31F8193919322503109398328838B
:100720003AC02091310130913201232B41F42091C4
:100730000201309103013093320120933101209165
:100740000001309101012115310541F42DB73EB76B
:100750004091040150910501241B350BE0913101BA
:10076000F0913201E217F307A0F42E1B3F0B28177C
:10077000390778F0AC014E5F5F4F2417350748F01A
:100780004E0F5F1F5093320140933101819391933B
:1007900002C0E0E0F0E0CF01DF91CF910895CF9368
:1007A000DF93009709F487C0FC013297138212820D
:1007B000C0913301D0913401209781F4208131819F
:1007C000280F391F809131019091320182179307D0
:1007D00079F5F0933201E09331016DC0DE0120E044
:1007E00030E0AE17BF0750F412964D915C9113970D
:1007F0009D014115510509F1DA01F3CFB383A283BD
:1008000040815181840F951F8A179B0771F48D9148
:100810009C911197840F951F029691838083129665
:100820008D919C911397938382832115310529F42F
:10083000F0933401E09333013EC0D9011396FC9349
:10084000EE9312974D915D91A40FB51FEA17FB0728
:1008500079F480819181840F951F0296D9011196B8
:100860009C938E938281938113969C938E9312977F
:10087000E0E0F0E08A819B81009719F0FE01EC0135
:10088000F9CFCE01029628813981820F931F2091E2
:100890003101309132012817390769F4309729F472
:1008A000109234011092330102C013821282D0934D
:1008B0003201C0933101DF91CF9108954CE051E0B6
:1008C00007C0FB01DC0101900D920020E1F70895C3
:1008D000FA01A191B081009719F41097E1F0CD01D0
:1008E000DC01CD010D90002011F4C00113C0FB010B
:1008F0002191222319F02015D9F7F3CFFB01219183
:10090000201519F41E92119606C02223C1F70D90EE
:100910000020A1F7D001FA01A193B08308950F93AD
:100920001F93CF93DF93CDB7DEB72E970FB6F89412
:10093000DEBF0FBECDBF0D891E8986E08C831A8372
:1009400009838FEF9FE79E838D83AE01475E5F4FE4
:100950006F89788DCE01019610D0EF81F885E00F78
:10096000F11F10822E960FB6F894DEBF0FBECDBFDA
:10097000DF91CF911F910F9108952F923F924F9247
:100980005F926F927F928F929F92AF92BF92CF921F
:10099000DF92EF92FF920F931F93CF93DF93CDB728
:1009A000DEB72C970FB6F894DEBF0FBECDBF7C012B
:1009B0006B018A01FC0117821682838181FFB0C11D
:1009C000CE0101964C01F7019381F60193FD8591CB
:1009D00093FF81916F01882309F49EC1853239F418
:1009E00093FD859193FF81916F01853221F4B701C9
:1009F00090E0C7D1E8CF512C312C20E02032A0F478
:100A00008B3269F030F4803259F0833269F420611E
:100A10002CC08D3239F0803339F4216026C0226039
:100A2000246023C0286021C027FD27C030ED380F87
:100A30003A3078F426FF06C0FAE05F9E300D1124AC
:100A4000532E13C08AE0389E300D1124332E2062BD
:100A50000CC08E3221F426FD5FC1206406C08C36A6
:100A600011F4206802C0883641F4F60193FD8591A7
:100A700093FF81916F018111C1CF982F9F7D955474
:100A8000933028F40C5F1F4FFFE3F9830DC08336CA
:100A900031F0833771F0833509F057C021C0F80178
:100AA000808189830E5F1F4F44244394512C54014D
:100AB00014C03801F2E06F0E711CF801A080B18003
:100AC00026FF03C0652D70E002C06FEF7FEFC50108
:100AD0002C874CD12C0183012C852F77222E16C018
:100AE0003801F2E06F0E711CF801A080B18026FF82
:100AF00003C0652D70E002C06FEF7FEFC5012C874A
:100B00002AD12C012C852068222E830123FC19C0B8
:100B1000832D90E048165906A0F4B70180E290E0DA
:100B200030D13A94F5CFF50127FC859127FE8191CC
:100B30005F01B70190E025D131103A94F1E04F1AEE
:100B400051084114510479F7DEC0843611F089361A
:100B500031F5F80127FF07C060817181828193819F
:100B60000C5F1F4F08C060817181882777FD8095D9
:100B7000982F0E5F1F4F2F76B22E97FF09C09095CA
:100B80008095709561957F4F8F4F9F4F2068B22E53
:100B90002AE030E0A40127D1A82EA81843C0853749
:100BA00029F42F7EB22E2AE030E025C0F22FF97F03
:100BB000BF2E8F36C1F018F4883579F0ADC080377C
:100BC00019F0883721F0A8C02F2F2061B22EB4FE73
:100BD0000DC08B2D8460B82E09C024FF0AC09F2F42
:100BE0009660B92E06C028E030E005C020E130E074
:100BF00002C020E132E0F801B7FE07C060817181D8
:100C0000828193810C5F1F4F06C06081718180E0FB
:100C100090E00E5F1F4FA401E6D0A82EA818FB2D70
:100C2000FF77BF2EB6FE0BC02B2D2E7FA51450F4E0
:100C3000B4FE0AC0B2FC08C02B2D2E7E05C07A2C53
:100C40002B2D03C07A2C01C0752C24FF0DC0FE0192
:100C5000EA0DF11D8081803311F4297E09C022FF45
:100C600006C07394739404C0822F867809F073943D
:100C700023FD12C020FF06C05A2C731418F4530C25
:100C80005718732C731460F4B70180E290E02C873E
:100C900078D073942C85F6CF731410F4371801C0F4
:100CA000312C24FF11C0B70180E390E02C8769D07C
:100CB0002C8522FF16C021FF03C088E590E002C00A
:100CC00088E790E0B7010CC0822F867851F021FDB3
:100CD00002C080E201C08BE227FD8DE2B70190E007
:100CE00050D0A51430F4B70180E390E04AD05A9474
:100CF000F8CFAA94F401EA0DF11D8081B70190E0CC
:100D000040D0A110F6CF332009F45DCEB70180E2C8
:100D100090E037D03A94F7CFF7018681978102C0EF
:100D20008FEF9FEF2C960FB6F894DEBF0FBECDBFAE
:100D3000DF91CF911F910F91FF90EF90DF90CF90B7
:100D4000BF90AF909F908F907F906F905F904F90EB
:100D50003F902F900895FC01059061507040011064
:100D6000D8F7809590958E0F9F1F0895FC016150D4
:100D7000704001900110D8F7809590958E0F9F1FBD
:100D800008950F931F93CF93DF93182F092FEB0133
:100D90008B8181FD03C08FEF9FEF20C082FF10C0C9
:100DA0004E815F812C813D81421753077CF4E8819D
:100DB000F9819F012F5F3F4F39832883108306C03D
:100DC000E885F985812F0995892B29F72E813F81A7
:100DD0002F5F3F4F3F832E83812F902FDF91CF9145
:100DE0001F910F910895FA01AA27283051F120315F
:100DF00081F1E8946F936E7F6E5F7F4F8F4F9F4FAF
:100E0000AF4FB1E03ED0B4E03CD0670F781F891FF0
:100E10009A1FA11D680F791F8A1F911DA11D6A0FBE
:100E2000711D811D911DA11D20D009F468943F9171
:100E30002AE0269F11243019305D3193DEF6CF0170
:100E40000895462F4770405D4193B3E00FD0C9F736
:100E5000F6CF462F4F70405D4A3318F0495D31FDA3
:100E60004052419302D0A9F7EACFB4E0A6959795F6
:100E7000879577956795BA95C9F7009761057105CC
:100E800008959B01AC010A2E069457954795379516
:100E90002795BA95C9F7620F731F841F951FA01D70
:060EA0000895F894FFCF55
:0C0EA600000035012000257325730000BA
:00000001FF
